:100000000C9434000C9451000C9451000C94510049
:100010000C9451000C9451000C9451000C9451001C
:100020000C9451000C9451000C9451000C9451000C
:100030000C9451000C9451000C9451000C945100FC
:100040000C9451000C9451000C9451000C945100EC
:100050000C9451000C9451000C9451000C945100DC
:100060000C9451000C94510011241FBECFEFD8E026
:10007000DEBFCDBF11E0A0E0B1E0EEEDF1E002C0E7
:1000800005900D92A230B107D9F721E0A2E0B1E0CE
:1000900001C01D92A430B207E1F70E948C000C94BD
:1000A000ED000C94000082E08093C0001092C50027
:1000B00080E18093C40088E08093C10086E0809353
:1000C000C20008959091C00095FFFCCF8093C600B8
:1000D000089580E480937C0087E880937A000895F7
:1000E000ECE7F0E09081907F8F70892B8083EAE7C6
:1000F000F0E080818064808380917A0086FDFCCF6F
:10010000809178009091790008958AB18F738AB9AF
:100110008BB1806C8BB908950E9453000E946900D6
:100120000E94850080E00E947000EC0181E00E9446
:1001300070008C01CC3221E0D20728F0CD3BD240B8
:1001400020F0C5E503C0C4E401C0C0E08091030114
:10015000C81729F0CC2319F08C2F0E946200C0939D
:1001600003010C3291E0190728F00D3B124020F0FA
:10017000C2E503C0CCE401C0C0E080910201C81711
:1001800029F0CC2319F08C2F0E946200C093020149
:1001900089B1C9B1C078D82FD07486FD07C08091CD
:1001A0000101882319F081E40E946200C11107C097
:1001B00080910001882319F082E40E946200D093AC
:1001C0000101C09300018FEF91EE24E08150904037
:0E01D0002040E1F700C00000A5CFF894FFCF5B
:0201DE0001011D
:00000001FF
